{
  "transactions": [
    {
      "hash": "0x87af2d67a6ccff93aac38bca03dcdd31e7ef9e6b406372f7f1ba80b2f8dce9ae",
      "transactionType": "CREATE",
      "contractName": "DevOpsTools",
      "contractAddress": "0x11038f30504B47135b97459101cCa56E38b75afd",
      "function": null,
      "arguments": null,
      "transaction": {
        "type": "0x02",
        "from": "0x0b74b8286fa055ab04345df2a18d31f64524df2c",
        "gas": "0xebb6e",
        "data": "0x610c7861003a600b82828239805160001a60731461002d57634e487b7160e01b600052600060045260246000fd5b30600052607381538281f3fe730000000000000000000000000000000000000000301460806040526004361061006c5760003560e01c806326dceeb7146100715780632aa1c696146100ae5780633a768463146100e5578063a6066fa514610100578063d76ca83d14610108578063e374cdf11461011b575b600080fd5b81801561007d57600080fd5b5061009161008c366004610897565b61013b565b6040516001600160a01b0390911681526020015b60405180910390f35b6100d86040518060400160405280600b81526020016a0b8bd89c9bd85918d85cdd60aa1b81525081565b6040516100a59190610979565b610091737109709ecfa91a80626ff3989d68f67f5b1dd12d81565b6100d8610507565b6100d861011636600461098c565b610523565b81801561012757600080fd5b506100916101363660046109c1565b6106da565b600061014683610523565b925061015182610523565b60408051600180825281830190925291935060009190816020015b606081526020019060019003908161016c579050509050604051806040016040528060038152602001621c1dd960ea1b815250816000815181106101b2576101b2610a06565b6020908102919091010152604051638916046760e01b8152600090737109709ecfa91a80626ff3989d68f67f5b1dd12d906389160467906101f7908590600401610a1c565b6000604051808303816000875af1158015610216573d6000803e3d6000fd5b505050506040513d6000823e601f3d908101601f1916820160405261023e9190810190610ab5565b60408051600580825260c0820190925291925060009190816020015b606081526020019060019003908161025a579050509050604051806040016040528060048152602001630c4c2e6d60e31b815250816000815181106102a1576102a1610a06565b602002602001018190525081856040516020016102bf929190610afe565b604051602081830303815290604052816001815181106102e1576102e1610a06565b6020026020010181905250878160028151811061030057610300610a06565b602090810291909101015260405163348051d760e11b815260048101889052737109709ecfa91a80626ff3989d68f67f5b1dd12d90636900a3ae90602401600060405180830381865afa15801561035b573d6000803e3d6000fd5b505050506040513d6000823e601f3d908101601f191682016040526103839190810190610ab5565b8160038151811061039657610396610a06565b602002602001018190525081866040516020016103b4929190610b2d565b604051602081830303815290604052816004815181106103d6576103d6610a06565b6020908102919091010152604051638916046760e01b8152600090737109709ecfa91a80626ff3989d68f67f5b1dd12d9063891604679061041b908590600401610a1c565b6000604051808303816000875af115801561043a573d6000803e3d6000fd5b505050506040513d6000823e601f3d908101601f191682016040526104629190810190610ab5565b90506104916040518060400160405280600c81526020016b2932ba3ab937102230ba309d60a11b81525061072c565b61049a81610772565b60006104a582610b69565b60601c905080156104bc5794506104ff9350505050565b60405162461bcd60e51b8152602060048201526014602482015273139bc818dbdb9d1c9858dd0819195c1b1bde595960621b604482015260640160405180910390fd5b949350505050565b604051806060016040528060318152602001610c126031913981565b80516060908290600090815b835181101561057e5783818151811061054a5761054a610a06565b6020910101516001600160f81b031916600160fd1b1461056c5780925061057e565b8061057681610bbb565b91505061052f565b5082515b80156105d85783610594600183610bd4565b815181106105a4576105a4610a06565b6020910101516001600160f81b031916600160fd1b146105c6578091506105d8565b806105d081610be7565b915050610582565b508282815181106105eb576105eb610a06565b01602001516001600160f81b031916601760f91b036106125761060f600183610bfe565b91505b600061061e8383610bd4565b67ffffffffffffffff811115610636576106366107d2565b6040519080825280601f01601f191660200182016040528015610660576020820181803683370190505b50905060005b81518110156106d0578461067a8286610bfe565b8151811061068a5761068a610a06565b602001015160f81c60f81b8282815181106106a7576106a7610a06565b60200101906001600160f81b031916908160001a905350806106c881610bbb565b915050610666565b5095945050505050565b600061072383836040518060400160405280600b81526020016a0b8bd89c9bd85918d85cdd60aa1b815250604051806060016040528060318152602001610c126031913961013b565b90505b92915050565b61076f816040516024016107409190610979565b60408051601f198184030181529190526020810180516001600160e01b031663104c13eb60e21b1790526107b1565b50565b61076f816040516024016107869190610979565b60408051601f198184030181529190526020810180516001600160e01b03166305f3bfab60e11b1790525b80516a636f6e736f6c652e6c6f67602083016000808483855afa5050505050565b634e487b7160e01b600052604160045260246000fd5b604051601f8201601f1916810167ffffffffffffffff81118282101715610811576108116107d2565b604052919050565b600067ffffffffffffffff821115610833576108336107d2565b50601f01601f191660200190565b600082601f83011261085257600080fd5b813561086561086082610819565b6107e8565b81815284602083860101111561087a57600080fd5b816020850160208301376000918101602001919091529392505050565b600080600080608085870312156108ad57600080fd5b843567ffffffffffffffff808211156108c557600080fd5b6108d188838901610841565b95506020870135945060408701359150808211156108ee57600080fd5b6108fa88838901610841565b9350606087013591508082111561091057600080fd5b5061091d87828801610841565b91505092959194509250565b60005b8381101561094457818101518382015260200161092c565b50506000910152565b60008151808452610965816020860160208601610929565b601f01601f19169290920160200192915050565b602081526000610723602083018461094d565b60006020828403121561099e57600080fd5b813567ffffffffffffffff8111156109b557600080fd5b6104ff84828501610841565b600080604083850312156109d457600080fd5b823567ffffffffffffffff8111156109eb57600080fd5b6109f785828601610841565b95602094909401359450505050565b634e487b7160e01b600052603260045260246000fd5b6000602080830181845280855180835260408601915060408160051b870101925083870160005b82811015610a7157603f19888603018452610a5f85835161094d565b94509285019290850190600101610a43565b5092979650505050505050565b6000610a8c61086084610819565b9050828152838383011115610aa057600080fd5b610aae836020830184610929565b9392505050565b600060208284031215610ac757600080fd5b815167ffffffffffffffff811115610ade57600080fd5b8201601f81018413610aef57600080fd5b6104ff84825160208401610a7e565b60008351610b10818460208801610929565b835190830190610b24818360208801610929565b01949350505050565b60008351610b3f818460208801610929565b602f60f81b9083019081528351610b5d816001840160208801610929565b01600101949350505050565b805160208201516bffffffffffffffffffffffff198082169291906014831015610b9d5780818460140360031b1b83161693505b505050919050565b634e487b7160e01b600052601160045260246000fd5b600060018201610bcd57610bcd610ba5565b5060010190565b8181038181111561072657610726610ba5565b600081610bf657610bf6610ba5565b506000190190565b8082018082111561072657610726610ba556fe2e2f6c69622f666f756e6472792d6465766f70732f7372632f6765745f726563656e745f6465706c6f796d656e742e7368a2646970667358221220974ae924783ab3a642dde66f4f1dad3e83376f30e02049b084e635508bafab5d64736f6c63430008150033",
        "nonce": "0x36",
        "accessList": []
      },
      "additionalContracts": [],
      "isFixedGasLimit": false
    },
    {
      "hash": "0xeab2c4d4ac7ad71579aafee7af7f44e0a0afaed45c04c16c7dfae52c7958680a",
      "transactionType": "CALL",
      "contractName": "VRFCoordinatorV2",
      "contractAddress": "0x8103B0A8A00be2DDC778e6e7eaa21791Cd364625",
      "function": "createSubscription():(uint64)",
      "arguments": [],
      "transaction": {
        "type": "0x02",
        "from": "0x0b74b8286fa055ab04345df2a18d31f64524df2c",
        "to": "0x8103b0a8a00be2ddc778e6e7eaa21791cd364625",
        "gas": "0x1558c",
        "value": "0x0",
        "data": "0xa21a23e4",
        "nonce": "0x37",
        "accessList": []
      },
      "additionalContracts": [],
      "isFixedGasLimit": false
    },
    {
      "hash": "0x7a6b9ae09ea42db6f9385f17451adc53d3c82a6410eca0e05ba5551c7930b69a",
      "transactionType": "CALL",
      "contractName": "LinkToken",
      "contractAddress": "0x779877A7B0D9E8603169DdbD7836e478b4624789",
      "function": "transferAndCall(address,uint256,bytes):(bool)",
      "arguments": [
        "0x8103B0A8A00be2DDC778e6e7eaa21791Cd364625",
        "6000000000000000000",
        "0x0000000000000000000000000000000000000000000000000000000000001ed3"
      ],
      "transaction": {
        "type": "0x02",
        "from": "0x0b74b8286fa055ab04345df2a18d31f64524df2c",
        "to": "0x779877a7b0d9e8603169ddbd7836e478b4624789",
        "gas": "0x1b43f",
        "value": "0x0",
        "data": "0x4000aea00000000000000000000000008103b0a8a00be2ddc778e6e7eaa21791cd36462500000000000000000000000000000000000000000000000053444835ec580000000000000000000000000000000000000000000000000000000000000000006000000000000000000000000000000000000000000000000000000000000000200000000000000000000000000000000000000000000000000000000000001ed3",
        "nonce": "0x38",
        "accessList": []
      },
      "additionalContracts": [],
      "isFixedGasLimit": false
    },
    {
      "hash": "0xad1c00d15cbc65319a1d8273e078bfa55337c346badaf4fb34e088baad07ed7a",
      "transactionType": "CREATE",
      "contractName": "Raffle",
      "contractAddress": "0xe93E84A542C4F584b68D6f43AcE8b0cD8B5fBd06",
      "function": null,
      "arguments": [
        "10000000000000000",
        "30",
        "0x8103B0A8A00be2DDC778e6e7eaa21791Cd364625",
        "0x474e34a077df58807dbe9c96d3c009b23b3c6d0cce433e59bbf5b34f823bc56c",
        "7891",
        "500000"
      ],
      "transaction": {
        "type": "0x02",
        "from": "0x0b74b8286fa055ab04345df2a18d31f64524df2c",
        "gas": "0xddaa4",
        "value": "0x0",
        "data": "0x61016060405234801561001157600080fd5b50604051610ca2380380610ca283398101604081905261003091610087565b6001600160a01b0393909316608081905260a09590955260c09390935260e093909352610100929092526001600160401b03166101205263ffffffff1661014052426001556002805460ff60a01b19169055610112565b60008060008060008060c087890312156100a057600080fd5b86516020880151604089015191975095506001600160a01b03811681146100c657600080fd5b6060880151608089015191955093506001600160401b03811681146100ea57600080fd5b60a088015190925063ffffffff8116811461010457600080fd5b809150509295509295509295565b60805160a05160c05160e051610100516101205161014051610b29610179600039600061045c01526000610425015260006103ff0152600061049a0152600061054301526000818160a501526102820152600081816101fe01526102400152610b296000f3fe6080604052600436106100915760003560e01c8063473f1ddc11610059578063473f1ddc146101495780636e04ff0d1461017b578063c1c244e8146101a9578063e01b2fa1146101be578063e55ae4e8146101d357600080fd5b806309bc33a714610096578063115cbaf5146100d85780631fe543e3146100ff5780632cfcc539146101215780634585e33b14610129575b600080fd5b3480156100a257600080fd5b507f00000000000000000000000000000000000000000000000000000000000000005b6040519081526020015b60405180910390f35b3480156100e457600080fd5b50600254600160a01b900460ff166040516100cf91906107e2565b34801561010b57600080fd5b5061011f61011a366004610851565b6101f3565b005b61011f610280565b34801561013557600080fd5b5061011f610144366004610903565b61036b565b34801561015557600080fd5b506002546001600160a01b03165b6040516001600160a01b0390911681526020016100cf565b34801561018757600080fd5b5061019b610196366004610975565b61053b565b6040516100cf929190610a0a565b3480156101b557600080fd5b506001546100c5565b3480156101ca57600080fd5b506000546100c5565b3480156101df57600080fd5b506101636101ee366004610a62565b6105e8565b336001600160a01b037f000000000000000000000000000000000000000000000000000000000000000016146102725760405163073e64fd60e21b81523360048201526001600160a01b037f00000000000000000000000000000000000000000000000000000000000000001660248201526044015b60405180910390fd5b61027c8282610617565b5050565b7f00000000000000000000000000000000000000000000000000000000000000003410156102c15760405163246b904d60e01b815260040160405180910390fd5b6000600254600160a01b900460ff1660018111156102e1576102e16107cc565b146102ff5760405163349289c560e21b815260040160405180910390fd5b600080546001810182558180527f290decd9548b62a8d60345a988386fc84ba6bc95484008f6362f93160ef3e5630180546001600160a01b0319163390811790915560405190917f819fbd717c9d0b421352c5116a644ca68ba176960c33f406f08d98a27370ca2791a2565b60006103856040518060200160405280600081525061053b565b509050806103db57600054600254479190600160a01b900460ff1660018111156103b1576103b16107cc565b604051630395fd5360e51b8152600481019390935260248301919091526044820152606401610269565b60028054600160a01b60ff60a01b199091161790556040516305d3b1d360e41b81527f000000000000000000000000000000000000000000000000000000000000000060048201527f000000000000000000000000000000000000000000000000000000000000000067ffffffffffffffff166024820152600360448201527f000000000000000000000000000000000000000000000000000000000000000063ffffffff166064820152600160848201526000906001600160a01b037f00000000000000000000000000000000000000000000000000000000000000001690635d3b1d309060a4016020604051808303816000875af11580156104e3573d6000803e3d6000fd5b505050506040513d601f19601f820116820180604052508101906105079190610a7b565b60405190915081907fcd6e45c8998311cab7e9d4385596cac867e20a0587194b954fa3a731c93ce78b90600090a250505050565b6000606060007f0000000000000000000000000000000000000000000000000000000000000000600154426105709190610a94565b101590506000600260149054906101000a900460ff166001811115610597576105976107cc565b600054901591504715159015158380156105ae5750825b80156105b75750815b80156105c05750805b60408051808201909152600381526203078360ec1b6020820152909890975095505050505050565b60008082815481106105fc576105fc610abb565b6000918252602090912001546001600160a01b031692915050565b6000805482518390839061062d5761062d610abb565b602002602001015161063f9190610ad1565b9050600080828154811061065557610655610abb565b600091825260208083209190910154600280546001600160a81b0319166001600160a01b039092169182179055604080518481529283019081905291519093506106a0929190610752565b50426001556040516000906001600160a01b0383169047908381818185875af1925050503d80600081146106f0576040519150601f19603f3d011682016040523d82523d6000602084013e6106f5565b606091505b5050905080610717576040516321bb5e1760e11b815260040160405180910390fd5b6040516001600160a01b038316907f5b690ec4a06fe979403046eaeea5b3ce38524683c3001f662c8b5a829632f7df90600090a25050505050565b8280548282559060005260206000209081019282156107a7579160200282015b828111156107a757825182546001600160a01b0319166001600160a01b03909116178255602090920191600190910190610772565b506107b39291506107b7565b5090565b5b808211156107b357600081556001016107b8565b634e487b7160e01b600052602160045260246000fd5b602081016002831061080457634e487b7160e01b600052602160045260246000fd5b91905290565b634e487b7160e01b600052604160045260246000fd5b604051601f8201601f1916810167ffffffffffffffff811182821017156108495761084961080a565b604052919050565b6000806040838503121561086457600080fd5b8235915060208084013567ffffffffffffffff8082111561088457600080fd5b818601915086601f83011261089857600080fd5b8135818111156108aa576108aa61080a565b8060051b91506108bb848301610820565b81815291830184019184810190898411156108d557600080fd5b938501935b838510156108f3578435825293850193908501906108da565b8096505050505050509250929050565b6000806020838503121561091657600080fd5b823567ffffffffffffffff8082111561092e57600080fd5b818501915085601f83011261094257600080fd5b81358181111561095157600080fd5b86602082850101111561096357600080fd5b60209290920196919550909350505050565b6000602080838503121561098857600080fd5b823567ffffffffffffffff808211156109a057600080fd5b818501915085601f8301126109b457600080fd5b8135818111156109c6576109c661080a565b6109d8601f8201601f19168501610820565b915080825286848285010111156109ee57600080fd5b8084840185840137600090820190930192909252509392505050565b821515815260006020604081840152835180604085015260005b81811015610a4057858101830151858201606001528201610a24565b506000606082860101526060601f19601f830116850101925050509392505050565b600060208284031215610a7457600080fd5b5035919050565b600060208284031215610a8d57600080fd5b5051919050565b81810381811115610ab557634e487b7160e01b600052601160045260246000fd5b92915050565b634e487b7160e01b600052603260045260246000fd5b600082610aee57634e487b7160e01b600052601260045260246000fd5b50069056fea26469706673582212202b0497a528829382b1a00a8fe9f6d1c31b7bd46bc7b225aed6a7fcb46e476bec64736f6c63430008150033000000000000000000000000000000000000000000000000002386f26fc10000000000000000000000000000000000000000000000000000000000000000001e0000000000000000000000008103b0a8a00be2ddc778e6e7eaa21791cd364625474e34a077df58807dbe9c96d3c009b23b3c6d0cce433e59bbf5b34f823bc56c0000000000000000000000000000000000000000000000000000000000001ed3000000000000000000000000000000000000000000000000000000000007a120",
        "nonce": "0x39",
        "accessList": []
      },
      "additionalContracts": [],
      "isFixedGasLimit": false
    },
    {
      "hash": "0xffaf4b54cb339a76a2b34ef6b5d1d5ccf8bd0c33b35ea01ffa1ff09ac32c40e3",
      "transactionType": "CALL",
      "contractName": "VRFCoordinatorV2",
      "contractAddress": "0x8103B0A8A00be2DDC778e6e7eaa21791Cd364625",
      "function": "addConsumer(uint64,address)",
      "arguments": [
        "7891",
        "0xe93E84A542C4F584b68D6f43AcE8b0cD8B5fBd06"
      ],
      "transaction": {
        "type": "0x02",
        "from": "0x0b74b8286fa055ab04345df2a18d31f64524df2c",
        "to": "0x8103b0a8a00be2ddc778e6e7eaa21791cd364625",
        "gas": "0x21eb0",
        "value": "0x0",
        "data": "0x7341c10c0000000000000000000000000000000000000000000000000000000000001ed3000000000000000000000000e93e84a542c4f584b68d6f43ace8b0cd8b5fbd06",
        "nonce": "0x3a",
        "accessList": []
      },
      "additionalContracts": [],
      "isFixedGasLimit": false
    }
  ],
  "receipts": [
    {
      "transactionHash": "0x87af2d67a6ccff93aac38bca03dcdd31e7ef9e6b406372f7f1ba80b2f8dce9ae",
      "transactionIndex": "0x16",
      "blockHash": "0xb04f9b21ce26b08b76ea5377e054e6c0e2d94702a69676fe2fd7c367f096f011",
      "blockNumber": "0x4add54",
      "from": "0x0B74B8286FA055ab04345DF2a18D31F64524dF2c",
      "to": null,
      "cumulativeGasUsed": "0x26f118",
      "gasUsed": "0xb55e6",
      "contractAddress": "0x11038f30504B47135b97459101cCa56E38b75afd",
      "logs": [],
      "status": "0x1",
      "logsBloom": "0x00000000000000000000000000000000000000000000000000000000000000000000000000000000000000000000000000000000000000000000000000000000000000000000000000000000000000000000000000000000000000000000000000000000000000000000000000000000000000000000000000000000000000000000000000000000000000000000000000000000000000000000000000000000000000000000000000000000000000000000000000000000000000000000000000000000000000000000000000000000000000000000000000000000000000000000000000000000000000000000000000000000000000000000000000000000",
      "type": "0x2",
      "effectiveGasPrice": "0x1486c553c"
    },
    {
      "transactionHash": "0xeab2c4d4ac7ad71579aafee7af7f44e0a0afaed45c04c16c7dfae52c7958680a",
      "transactionIndex": "0x17",
      "blockHash": "0xb04f9b21ce26b08b76ea5377e054e6c0e2d94702a69676fe2fd7c367f096f011",
      "blockNumber": "0x4add54",
      "from": "0x0B74B8286FA055ab04345DF2a18D31F64524dF2c",
      "to": "0x8103B0A8A00be2DDC778e6e7eaa21791Cd364625",
      "cumulativeGasUsed": "0x27daa2",
      "gasUsed": "0xe98a",
      "contractAddress": null,
      "logs": [
        {
          "address": "0x8103B0A8A00be2DDC778e6e7eaa21791Cd364625",
          "topics": [
            "0x464722b4166576d3dcbba877b999bc35cf911f4eaf434b7eba68fa113951d0bf",
            "0x0000000000000000000000000000000000000000000000000000000000001ed3"
          ],
          "data": "0x0000000000000000000000000b74b8286fa055ab04345df2a18d31f64524df2c",
          "blockHash": "0xb04f9b21ce26b08b76ea5377e054e6c0e2d94702a69676fe2fd7c367f096f011",
          "blockNumber": "0x4add54",
          "transactionHash": "0xeab2c4d4ac7ad71579aafee7af7f44e0a0afaed45c04c16c7dfae52c7958680a",
          "transactionIndex": "0x17",
          "logIndex": "0x1c",
          "removed": false
        }
      ],
      "status": "0x1",
      "logsBloom": "0x0000000000000000000001000000001000000000000000000000000000000000010000000000000000000000000000000000000000000000000000000000000000000000000000000000000000000000000000000000000000000000000000000000000000000000000000000000000000000000000000000000000000000000000000000c000020000000000000000000000000000000000000000000000000000000000000000000000000400000000000000000000000000000000000000000000000000000a00000000000000000000000000000000000000000000000000000000000000000000000000000000000000000000000000000000000000000",
      "type": "0x2",
      "effectiveGasPrice": "0x1486c553c"
    },
    {
      "transactionHash": "0x7a6b9ae09ea42db6f9385f17451adc53d3c82a6410eca0e05ba5551c7930b69a",
      "transactionIndex": "0x18",
      "blockHash": "0xb04f9b21ce26b08b76ea5377e054e6c0e2d94702a69676fe2fd7c367f096f011",
      "blockNumber": "0x4add54",
      "from": "0x0B74B8286FA055ab04345DF2a18D31F64524dF2c",
      "to": "0x779877A7B0D9E8603169DdbD7836e478b4624789",
      "cumulativeGasUsed": "0x2904ec",
      "gasUsed": "0x12a4a",
      "contractAddress": null,
      "logs": [
        {
          "address": "0x779877A7B0D9E8603169DdbD7836e478b4624789",
          "topics": [
            "0xddf252ad1be2c89b69c2b068fc378daa952ba7f163c4a11628f55a4df523b3ef",
            "0x0000000000000000000000000b74b8286fa055ab04345df2a18d31f64524df2c",
            "0x0000000000000000000000008103b0a8a00be2ddc778e6e7eaa21791cd364625"
          ],
          "data": "0x00000000000000000000000000000000000000000000000053444835ec580000",
          "blockHash": "0xb04f9b21ce26b08b76ea5377e054e6c0e2d94702a69676fe2fd7c367f096f011",
          "blockNumber": "0x4add54",
          "transactionHash": "0x7a6b9ae09ea42db6f9385f17451adc53d3c82a6410eca0e05ba5551c7930b69a",
          "transactionIndex": "0x18",
          "logIndex": "0x1d",
          "removed": false
        },
        {
          "address": "0x779877A7B0D9E8603169DdbD7836e478b4624789",
          "topics": [
            "0xe19260aff97b920c7df27010903aeb9c8d2be5d310a2c67824cf3f15396e4c16",
            "0x0000000000000000000000000b74b8286fa055ab04345df2a18d31f64524df2c",
            "0x0000000000000000000000008103b0a8a00be2ddc778e6e7eaa21791cd364625"
          ],
          "data": "0x00000000000000000000000000000000000000000000000053444835ec580000000000000000000000000000000000000000000000000000000000000000004000000000000000000000000000000000000000000000000000000000000000200000000000000000000000000000000000000000000000000000000000001ed3",
          "blockHash": "0xb04f9b21ce26b08b76ea5377e054e6c0e2d94702a69676fe2fd7c367f096f011",
          "blockNumber": "0x4add54",
          "transactionHash": "0x7a6b9ae09ea42db6f9385f17451adc53d3c82a6410eca0e05ba5551c7930b69a",
          "transactionIndex": "0x18",
          "logIndex": "0x1e",
          "removed": false
        },
        {
          "address": "0x8103B0A8A00be2DDC778e6e7eaa21791Cd364625",
          "topics": [
            "0xd39ec07f4e209f627a4c427971473820dc129761ba28de8906bd56f57101d4f8",
            "0x0000000000000000000000000000000000000000000000000000000000001ed3"
          ],
          "data": "0x000000000000000000000000000000000000000000000000000000000000000000000000000000000000000000000000000000000000000053444835ec580000",
          "blockHash": "0xb04f9b21ce26b08b76ea5377e054e6c0e2d94702a69676fe2fd7c367f096f011",
          "blockNumber": "0x4add54",
          "transactionHash": "0x7a6b9ae09ea42db6f9385f17451adc53d3c82a6410eca0e05ba5551c7930b69a",
          "transactionIndex": "0x18",
          "logIndex": "0x1f",
          "removed": false
        }
      ],
      "status": "0x1",
      "logsBloom": "0x0000001400000000000000000000001000000000000000020000000002000000000000000000800000000000000000000000000000000000000000000000000000000000000000000000000800000000001000000000000000002000000000000000000000000000000000000000000000000000400000000000001000000000000000000c000020000000000000800010000020000000000000000000000000000000000000000000000000400000000000000000000000020400000000000000000002000010800000000000000000000000000000000100000000000000000000000000000000000000000000000000000000000000000000000000000000",
      "type": "0x2",
      "effectiveGasPrice": "0x1486c553c"
    },
    {
      "transactionHash": "0xad1c00d15cbc65319a1d8273e078bfa55337c346badaf4fb34e088baad07ed7a",
      "transactionIndex": "0x19",
      "blockHash": "0xb04f9b21ce26b08b76ea5377e054e6c0e2d94702a69676fe2fd7c367f096f011",
      "blockNumber": "0x4add54",
      "from": "0x0B74B8286FA055ab04345DF2a18D31F64524dF2c",
      "to": null,
      "cumulativeGasUsed": "0x33adf4",
      "gasUsed": "0xaa908",
      "contractAddress": "0xe93E84A542C4F584b68D6f43AcE8b0cD8B5fBd06",
      "logs": [],
      "status": "0x1",
      "logsBloom": "0x00000000000000000000000000000000000000000000000000000000000000000000000000000000000000000000000000000000000000000000000000000000000000000000000000000000000000000000000000000000000000000000000000000000000000000000000000000000000000000000000000000000000000000000000000000000000000000000000000000000000000000000000000000000000000000000000000000000000000000000000000000000000000000000000000000000000000000000000000000000000000000000000000000000000000000000000000000000000000000000000000000000000000000000000000000000",
      "type": "0x2",
      "effectiveGasPrice": "0x1486c553c"
    },
    {
      "transactionHash": "0xffaf4b54cb339a76a2b34ef6b5d1d5ccf8bd0c33b35ea01ffa1ff09ac32c40e3",
      "transactionIndex": "0x1a",
      "blockHash": "0xb04f9b21ce26b08b76ea5377e054e6c0e2d94702a69676fe2fd7c367f096f011",
      "blockNumber": "0x4add54",
      "from": "0x0B74B8286FA055ab04345DF2a18D31F64524dF2c",
      "to": "0x8103B0A8A00be2DDC778e6e7eaa21791Cd364625",
      "cumulativeGasUsed": "0x352106",
      "gasUsed": "0x17312",
      "contractAddress": null,
      "logs": [
        {
          "address": "0x8103B0A8A00be2DDC778e6e7eaa21791Cd364625",
          "topics": [
            "0x43dc749a04ac8fb825cbd514f7c0e13f13bc6f2ee66043b76629d51776cff8e0",
            "0x0000000000000000000000000000000000000000000000000000000000001ed3"
          ],
          "data": "0x000000000000000000000000e93e84a542c4f584b68d6f43ace8b0cd8b5fbd06",
          "blockHash": "0xb04f9b21ce26b08b76ea5377e054e6c0e2d94702a69676fe2fd7c367f096f011",
          "blockNumber": "0x4add54",
          "transactionHash": "0xffaf4b54cb339a76a2b34ef6b5d1d5ccf8bd0c33b35ea01ffa1ff09ac32c40e3",
          "transactionIndex": "0x1a",
          "logIndex": "0x20",
          "removed": false
        }
      ],
      "status": "0x1",
      "logsBloom": "0x0000000000000000000000000000001000000000000000000000000000000000000000000000000000000000000000000000000000000000000000000000000000000000000000000000000000000000000000000000000000000000000000000000000000008000000000000000000000000000000000000000000000000000000000000c000020000000000000000000000000000000000000000000000000000000000000000000000080400000000000000000000000000000000000000000000000000000800000000000000000000000000000000000020000000000000000000000000000000000000000000000000000000000000000000000000000",
      "type": "0x2",
      "effectiveGasPrice": "0x1486c553c"
    }
  ],
  "libraries": [
    "lib/foundry-devops/src/DevOpsTools.sol:DevOpsTools:0x11038f30504b47135b97459101cca56e38b75afd"
  ],
  "pending": [],
  "returns": {
    "1": {
      "internal_type": "contract HelperConfig",
      "value": "0xC7f2Cf4845C6db0e1a1e91ED41Bcd0FcC1b0E141"
    },
    "0": {
      "internal_type": "contract Raffle",
      "value": "0xe93E84A542C4F584b68D6f43AcE8b0cD8B5fBd06"
    }
  },
  "timestamp": 1702824941,
  "chain": 11155111,
  "multi": false,
  "commit": "8714cb0"
}